:1000000000308A0099280000FF00030E8301A10040
:100010007F08A0000A08A7008A01A00E0408A20019
:100020007708A3007808A4007908A5007A08A6003C
:10003000831383128B1E1E280B192F28220884007D
:100040002308F7002408F8002508F9002608FA001C
:1000500027088A00210E8300FF0E7F0E09008A11F7
:1000600031280130A806A808031D382805103928B2
:100070000514831605108312A808031951280108D6
:10008000AE002908003CB0000130B1000030031C74
:100090000130B1022E08B0070318B10A3008810000
:1000A00062280108AF002A08003CB0000130B1000E
:1000B0000030031C0130B1022F08B0070318B10A49
:1000C000300881000B118A111E282D308400831303
:1000D0000008031978280230F800F701F70B6E28A2
:1000E000F80B6D289730F700F70B7428800B6B28FE
:1000F00008002908013C031C81282A08013C031838
:1001000088282A08290203188728AA038828A9030F
:1001100008002908183C031891282A08183C031CD9
:10012000982829082A0203189728AA0A9828A90AB1
:10013000080003081F398300723083168F00900176
:100140000F088312A80183161F129F121B08803903
:100150009B0007309C00831301308312A900AA0082
:100160008316811370308F0090010F0806108312E0
:1001700006100C3097000030F800063892007C30F2
:10018000831692003E30831295001708CF399700EE
:1001900083160108C7392838810083128B16C030B6
:1001A0008B04831606168312061EDB28831686161A
:1001B0008312861ADE281430AD00652083160616D9
:1001C0008312061A02297920AB012B08313C031C4B
:1001D000F7280A30AD006520831606168312061E26
:1001E000F5281430AD006520F728AB0AE528831602
:1001F00006168312061A012979203230AD006520D7
:10020000F7282529831686168312861A2529892020
:10021000AC012C08313C031C1B290A30AD006520C1
:10022000831686168312861E19291430AD006520A8
:100230001B29AC0A0929831686168312861A2529DA
:0E02400089203230AD0065201B29D1286300D3
:04400E00103F03005C
:00000001FF
;PIC16F88
;CRC=C839  CREATED="14-sep.-20 20:04"
