:1000000000308A0099280000FF00030E8301A10040
:100010007F08A0000A08A7008A01A00E0408A20019
:100020007708A3007808A4007908A5007A08A6003C
:10003000831383128B1E1E280B192F28220884007D
:100040002308F7002408F8002508F9002608FA001C
:1000500027088A00210E8300FF0E7F0E09008A11F7
:1000600031280130A806A808031D382805103928B2
:100070000514831605108312A808031951280108D6
:10008000AD002908003CAF000130B0000030031C77
:100090000130B0022D08AF070318B00A2F08810005
:1000A00062280108AE002A08003CAF000130B00011
:1000B0000030031C0130B0022E08AF070318B00A4D
:1000C0002F0881000B118A111E282C308400831305
:1000D0000008031978280230F800F701F70B6E28A2
:1000E000F80B6D289730F700F70B7428800B6B28FE
:1000F00008002908013C031C81282A08013C031838
:1001000088282A08290203188728AA038828A9030F
:1001100008002908F93C031891282A08F93C031C17
:10012000982829082A0203189728AA0A9828A90AB1
:10013000080003081F398300723083168F00900176
:100140000F088312A8010130A9000130AA0083160C
:100150001F129F121B0880399B0007309C008313DD
:1001600070308F00023090000F08061083120610C6
:100170000C3097000030F800063892007C3083166F
:1001800092003E30831295001708CF3997008316EE
:100190000108C7392838810083128B1683168C1604
:1001A000C03083128B040130A900AA00831681138A
:1001B00006168312061EE128831686168312861AF7
:1001C000E4281430AC006520831606168312061A44
:1001D000FC2879200230AB00FA30AC006520AB0B74
:1001E000EC28831606168312061AFB287920323073
:1001F000AC006520F1281329831686168312861A0F
:10020000132989200230AB00FA30AC006520AB0B1B
:100210000429831686168312861A13298920323000
:10022000AC00652009290A30AC0065208316D82867
:02023000630069
:04400E00103F03005C
:00000001FF
;PIC16F88
;CRC=B598  CREATED="13-sep.-20 19:18"
